:100000000C945D000C9485000C9485000C94850084
:100010000C9485000C9485000C9485000C9485004C
:100020000C9485000C9485000C9485000C9485003C
:100030000C9485000C9485000C9485000C9485002C
:100040000C94DA020C9485000C94A8020C948202A1
:100050000C9485000C9485000C9485000C9485000C
:100060000C9485000C94850000000008000201003B
:100070000003040700000000000000000000000072
:10008000250028002B0000000000240027002A0083
:10009000040404040404040402020202020203032E
:1000A0000303030301020408102040800102040836
:1000B0001020010204081020240311241FBECFEFDA
:1000C000D8E0DEBFCDBF11E0A0E0B1E0E8E8FAE0A3
:1000D00002C005900D92A432B107D9F721E0A4E245
:1000E000B1E001C01D92A73DB207E1F710E0CDE5F8
:1000F000D0E004C02197FE010E943C05CC35D10719
:10010000C9F70E948F030C9442050C94000090E004
:10011000FC01EC55FF4F249180579F4FFC018491C7
:10012000882399F090E0880F991FFC01EA57FF4F50
:10013000A591B491FC01E458FF4F859194918FB73C
:10014000F894EC91E22BEC938FBF0895AF92BF929D
:10015000CF92DF92EF92FF920F931F93CF93DF9393
:100160006C017B018B01040F151FEB015E01AE18C2
:10017000BF08C017D10759F06991D601ED91FC91E4
:100180000190F081E02DC6010995892B79F7C50111
:10019000DF91CF911F910F91FF90EF90DF90CF9063
:1001A000BF90AF900895FC01538D448D252F30E012
:1001B000842F90E0821B930B541710F0CF96089574
:1001C00001970895FC01918D828D981761F0A28DA1
:1001D000AE0FBF2FB11D5D968C91928D9F5F9F7367
:1001E000928F90E008958FEF9FEF0895FC01918D1D
:1001F000828D981731F0828DE80FF11D858D90E08A
:1002000008958FEF9FEF0895FC01918D228D892F26
:1002100090E0805C9F4F821B91098F73992708950E
:100220008DE291E00E94040121E0892B09F420E095
:10023000822F089580E090E0892B29F00E94100120
:1002400081110C9400000895FC01A48DA80FB92F12
:10025000B11DA35ABF4F2C91848D90E001968F73EE
:100260009927848FA689B7892C93A089B1898C910D
:10027000837080648C93938D848D981306C002885C
:10028000F389E02D80818F7D80830895EF92FF9226
:100290000F931F93CF93DF93EC0181E0888F9B8DA9
:1002A0008C8D98131AC0E889F989808185FF15C063
:1002B0009FB7F894EE89FF896083E889F989808186
:1002C0008370806480839FBF81E090E0DF91CF9155
:1002D0001F910F91FF90EF900895F62E0B8D10E077
:1002E0000F5F1F4F0F731127E02E8C8D8E110CC0E6
:1002F0000FB607FCFACFE889F989808185FFF5CF31
:10030000CE010E942401F1CFEB8DEC0FFD2FF11DEA
:10031000E35AFF4FF0829FB7F8940B8FEA89FB896D
:1003200080818062CFCFCF93DF93EC01888D8823CB
:10033000B9F0AA89BB89E889F9898C9185FD03C048
:10034000808186FD0DC00FB607FCF7CF8C9185FF2D
:10035000F2CF808185FFEDCFCE010E942401E9CF4D
:10036000DF91CF91089590E0FC01E859FF4F24916F
:10037000FC01EC55FF4F3491FC01E057FF4FE49135
:10038000EE23C9F0222339F0233001F1A8F4213003
:1003900019F1223029F1F0E0EE0FFF1FE458FF4F72
:1003A000A591B4918FB7F894EC91611126C0309566
:1003B0003E233C938FBF08952730A9F02830C9F021
:1003C000243049F7809180008F7D03C080918000A8
:1003D0008F7780938000DFCF84B58F7784BDDBCFAC
:1003E00084B58F7DFBCF8091B0008F778093B00074
:1003F000D2CF8091B0008F7DF9CF3E2BDACFCF9353
:10040000DF9360E08CE00E94B30160E088E00E942E
:10041000B301C7E0D0E060E084E00E94B3018091C6
:10042000CA0190E00C2E02C0959587950A94E2F7D8
:1004300061E080FF60E088E00E94B30161E084E059
:100440000E94B301219738F761E08CE0DF91CF91F2
:100450000C94B3013FB7F8948091290190912A013F
:10046000A0912B01B0912C0126B5A89B05C02F3F70
:1004700019F00196A11DB11D3FBFBA2FA92F982FCA
:100480008827BC01CD01620F711D811D911D42E0C5
:10049000660F771F881F991F4A95D1F708958F928D
:1004A0009F92AF92BF92CF92DF92EF92FF926B0139
:1004B0007C010E942A024B015C01C114D104E104B9
:1004C000F104B9F00E942A02681979098A099B0986
:1004D000683E73408105910580F321E0C21AD1087E
:1004E000E108F10888EE880E83E0981EA11CB11C7B
:1004F000E4CFFF90EF90DF90CF90BF90AF909F90B0
:100500008F9008951F920F920FB60F9211242F9380
:100510003F934F935F936F937F938F939F93AF938B
:10052000BF93EF93FF938DE291E00E942401FF912E
:10053000EF91BF91AF919F918F917F916F915F915B
:100540004F913F912F910F900FBE0F901F901895D4
:100550001F920F920FB60F9211242F938F939F9398
:10056000EF93FF93E0913D01F0913E018081E09196
:100570004301F091440182FD1BC0908180914601AE
:100580008F5F8F7320914701821741F0E091460100
:10059000F0E0E35DFE4F958F80934601FF91EF9170
:1005A0009F918F912F910F900FBE0F901F901895D4
:1005B0008081F4CF1F920F920FB60F9211242F93C8
:1005C0003F938F939F93AF93BF9380912501909119
:1005D0002601A0912701B09128013091240123E048
:1005E000230F2D3758F50196A11DB11D209324012D
:1005F0008093250190932601A0932701B0932801B1
:100600008091290190912A01A0912B01B0912C0198
:100610000196A11DB11D8093290190932A01A093F9
:100620002B01B0932C01BF91AF919F918F913F917E
:100630002F910F900FBE0F901F90189526E8230F53
:100640000296A11DB11DD2CFEDE2F1E0138212821C
:1006500088EE93E0A0E0B0E084839583A683B7831F
:1006600084E091E09183808385EC90E09587848796
:1006700084EC90E09787868780EC90E0918B808B6C
:1006800081EC90E0938B828B82EC90E0958B848B55
:1006900086EC90E0978B868B118E128E138E148EC3
:1006A0008CE00E94870087E00E94870088E00E941B
:1006B000870084E00E9487001092CA010E94FF0117
:1006C00060E087E00E94B301EBECF1E088EC90E0A1
:1006D0009183808382E0828313860E94FF0185E0FC
:1006E0000E94870086E00E94870061E085E00E940A
:1006F000B30161E086E00E94B30184B5836884BDE4
:1007000017BC86E00E94870084B5836284BD18BC54
:1007100085E00E9487008FEF87BD88BD089578949B
:1007200084B5826084BD84B5816084BD85B58260F6
:1007300085BD85B5816085BD80916E0081608093A7
:100740006E00109281008091810082608093810010
:100750008091810081608093810080918000816020
:10076000809380008091B10084608093B10080917B
:10077000B00081608093B00080917A0084608093A3
:100780007A0080917A00826080937A0080917A006A
:10079000816080937A0080917A00806880937A00EB
:1007A0001092C100E0913D01F0913E0182E0808312
:1007B000E0913901F0913A011082E0913B01F09112
:1007C0003C018FEC808310924501E0914101F09152
:1007D000420186E08083E0913F01F09140018081F9
:1007E00080618083E0913F01F091400180818860C9
:1007F0008083E0913F01F091400180818068808397
:10080000E0913F01F091400180818F7D80834DE038
:1008100050E062E171E08DE291E00E94A60042E0CA
:1008200050E060E271E08DE291E00E94A6008091CC
:10083000CB019091CC014AE0489F9001499F300D37
:10084000112450E040E060E077E883E993E00E9403
:100850001D052093CE013093CF014093D0015093DA
:10086000D1011092D2011092D3011092D4011092B2
:10087000D501E8EE4E2EE3E05E2E612C712C332480
:100880003A9400E010E06091CE017091CF01809128
:10089000D0019091D101A30192010E94FB04690152
:1008A0007A014B015C01C5E6D0E0219709F497C0BD
:1008B0005091CD01513009F43CC0523009F04AC08A
:1008C00040E430E821E090E28091D60183FF36C019
:1008D00088508093D6018091D6018F738093D60182
:1008E000513071F53092B3003092B400692F622B11
:1008F000532F542B862F852B80957091CA01872307
:100900008093CA01E091D601F0E073E0F595E79598
:100910007A95E1F7E830F105D8F4EF56FB4F0C94E7
:100920003C05ED04A504E404E304E604E804EA0459
:10093000EC0440E138E022E094E0C6CF8051C9CF1A
:100940005230A1F637BC38BCD1CF862B8093CA0178
:100950000E94FF01C701B6010E944F028091D2019F
:100960009091D301A091D401B091D501880D991D2A
:10097000AA1DBB1D8093D2019093D301A093D401F3
:10098000B093D501883E9340A105B10508F48DCF01
:1009900061E070E080E090E00E944F028091D2011F
:1009A0009091D301A091D401B091D501885E93407C
:1009B000A109B1098093D2019093D301A093D401EE
:1009C000B093D50172CF232B822BC0CF832BBECF08
:1009D000852BBCCF842BBACF942B892BB7CF011595
:1009E000110509F450CF0E941001882309F44BCF60
:1009F0000E94000048CFA1E21A2EAA1BBB1BFD01DA
:100A00000DC0AA1FBB1FEE1FFF1FA217B307E407ED
:100A1000F50720F0A21BB30BE40BF50B661F771F45
:100A2000881F991F1A9469F7609570958095909525
:100A30009B01AC01BD01CF010895052E97FB1EF46B
:100A400000940E94340557FD07D00E94FB0407FC68
:100A500003D04EF40C943405509540953095219573
:100A60003F4F4F4F5F4F08959095809570956195DA
:100A70007F4F8F4F9F4F0895EE0FFF1F0590F4910A
:080A8000E02D0994F894FFCF6A
:100A8800000000004601A600D30093010401E20023
:100A9800F600537465707065722074657374210074
:040AA8000D0A000033
:00000001FF
